S01500004D795F4D4944495F426179616E2E737265637D
S113000022C031C030C02FC02EC02DC02CC02BC088
S11300102AC029C028C027C026C025C024C023C0A8
S113002022C021C020C05EC060C061C062C065C083
S113003066C069C06CC06FC070C073C076C079C040
S11300407CC07FC082C011241FBECFE5D4E0DEBFD8
S1130050CDBF20E0A0E6B0E001C01D92A336B207F8
S1130060E1F727D07FC0CCCF20B323702093610069
S113007030E4239FC001112430916000832B813030
S1130080910519F0049739F00BC0809162008F5FDD
S11300908093620005C08091620081508093620069
S11300A080916200882314F410926200209360000F
S11300B008958F9881B38C6381BB82B3837C82BBA8
S11300C087B3807C87BBC0E0D0E044C082B3837C2C
S11300D082BB8C2F90E080319105D0F5FC01ED5E60
S11300E0FF4F099482B382BB33C0929A31C0939A72
S11300F02FC082B38C6082BB2BC0949A29C082B378
S1130100846182BB25C082B3886182BB21C082B373
S11301108C6182BB1DC0959A1BC082B3846282BB72
S113012017C082B3886282BB13C082B3866182BB6C
S11301300FC082B3806382BB0BC082B3846382BB73
S113014007C082B3886382BB03C082B38C6382BB63
S11301508BDFCF5FC03108F4B9CF82B3837C82BB1D
S10B0160CD2FC0CFF894FFCFAE
S9030000FC
