:1000000022C031C030C02FC02EC02DC02CC02BC08C
:100010002AC029C028C027C026C025C024C023C0AC
:1000200022C021C020C070C072C073C074C077C02D
:1000300078C07BC07EC081C082C085C088C08BC0B4
:100040008EC091C094C011241FBECFE5D4E0DEBFA6
:10005000CDBF20E0A0E6B0E001C01D92A336B207FC
:10006000E1F739D091C0CCCF80B3807C90E09595FA
:100070008795959587958093610020916000282B46
:100080002037C9F038F4203281F0203471F020316B
:10009000B9F411C0203B49F018F4203861F010C0C9
:1000A000203D19F0203E39F00BC0209162002F5FF7
:1000B0002093620005C020916200215020936200CD
:1000C00020916200222314F410926200880F880F9E
:1000D0008093600008958F9881B38C6381BB82B355
:1000E000837C82BB87B3807C87BBC0E0D0E044C008
:1000F00082B3837C82BB8C2F90E080319105D0F558
:10010000FC01ED5EFF4F099482B382BB33C0929A2B
:1001100031C0939A2FC082B38C6082BB2BC0949A5B
:1001200029C082B3846182BB25C082B3886182BB4F
:1001300021C082B38C6182BB1DC0959A1BC082B363
:10014000846282BB17C082B3886282BB13C082B351
:10015000866182BB0FC082B3806382BB0BC082B357
:10016000846382BB07C082B3886382BB03C082B34F
:100170008C6382BB79DFCF5FC03108F4B9CF82B323
:0C018000837C82BBCD2FC0CFF894FFCF52
:00000001FF
