:1000000022C031C030C02FC02EC02DC02CC02BC08C
:100010002AC029C028C027C026C025C024C023C0AC
:1000200022C021C020C06FC089C0A2C0BBC0D6C042
:10003000EFC00AC125C140C159C174C18FC1AAC155
:10004000C5C1E0C1FBC111241FBECFE5D4E0DEBFB6
:10005000CDBF20E0A0E6B0E001C01D92A236B207FD
:10006000E1F734D019C2CCCF80B3807C90E0959575
:1000700087959595879520916000282B203D19F054
:10008000203E39F00BC0209161002F5F209361006A
:1000900005C02091610021502093610020916100F2
:1000A00022231CF42FE720936100880F880F809390
:1000B0006000089510BC8FE189B9539A80B58660BD
:1000C00080BD08955D9BFECF8CB908958F9881B354
:1000D0008C6381BB82B3837C82BB87B3807C87BB0C
:1000E000E9DFC1E001C0CF5F82B3837C82BBEFEF69
:1000F000EC0F8E2F90E08031910508F0BBC1FC0120
:10010000ED5EFF4F099482B382BB989902C081E6ED
:10011000D9DF999902C082E6D5DF9A9902C083E6B9
:10012000D1DF9B9902C084E6CDDFB09902C086E69C
:10013000C9DFB199ACC185E6C5DFA9C1929A98998A
:1001400002C087E6BFDF999902C088E6BBDF9A99B3
:1001500002C089E6B7DF9B9902C08BE6B3DFB09996
:1001600002C08CE6AFDFB19992C18DE6ABDF8FC1E3
:10017000939A989902C08EE6A5DF999902C08FE6FE
:10018000A1DF9A9902C080E79DDF9B9902C082E7B8
:1001900099DFB09902C083E795DFB19978C184E710
:1001A00091DF75C182B38C6082BB989902C088E7E9
:1001B00089DF999902C089E785DF9A9902C08AE7A9
:1001C00081DF9B9902C081E77DDFB09902C087E79C
:1001D00079DFB1995CC186E775DF59C1949A989926
:1001E00002C08AE66FDF999902C081E66BDF9A99B7
:1001F00002C081E667DF9B9902C081E663DFB099A8
:1002000002C081E65FDFB19942C181E65BDF3FC199
:1002100082B3846182BB989902C081E653DF9999C9
:1002200002C081E64FDF9A9902C081E64BDF9B99BD
:1002300002C081E647DFB09902C081E643DFB19991
:1002400026C181E63FDF23C182B3886182BB9899D2
:1002500002C081E637DF999902C081E633DF9A99BF
:1002600002C081E62FDF9B9902C081E62BDFB099A7
:1002700002C081E627DFB1990AC181E623DF07C109
:1002800082B38C6182BB989902C081E61BDF999989
:1002900002C081E617DF9A9902C081E613DF9B99BD
:1002A00002C081E60FDFB09902C081E60BDFB19991
:1002B000EEC081E607DFEBC0959A989902C081E60F
:1002C00001DF999902C081E6FDDE9A9902C081E6BC
:1002D000F9DE9B9902C081E6F5DEB09902C081E6A5
:1002E000F1DEB199D4C081E6EDDED1C082B3846283
:1002F00082BB989902C081E6E5DE999902C081E649
:10030000E1DE9A9902C081E6DDDE9B9902C081E6BA
:10031000D9DEB09902C081E6D5DEB199B8C081E6D8
:10032000D1DEB5C082B3886282BB989902C081E6F3
:10033000C9DE999902C081E6C5DE9A9902C082E6BB
:10034000C1DE9B9902C082E6BDDEB09902C082E6A2
:10035000B9DEB1999CC082E6B5DE99C082B38661F0
:1003600082BB989902C082E6ADDE999902C082E60E
:10037000A9DE9A9902C082E6A5DE9B9902C082E6B8
:10038000A1DEB09902C082E69DDEB19980C082E60E
:1003900099DE7DC082B3806382BB989902C082E6F9
:1003A00091DE999902C082E68DDE9A9902C083E6B9
:1003B00089DE9B9902C083E685DEB09902C083E6A0
:1003C00081DEB19964C083E67DDE61C082B384635F
:1003D00082BB989902C084E675DE999902C088E6CE
:1003E00071DE9A9902C084E66DDE9B9902C08BE6AD
:1003F00069DEB09902C082E765DEB19948C085E642
:1004000061DE45C082B3886382BB989902C083E7EE
:1004100059DE999902C087E655DE9A9902C083E6B3
:1004200051DE9B9902C082E64DDEB09902C082E7A0
:1004300049DEB1992CC089E745DE29C082B38C63BF
:1004400082BB989902C08AE63DDE999902C086E790
:1004500039DE9A9902C084E635DE9B9902C085E6B2
:1004600031DEB09902C083E72DDEB1990BC081E780
:1004700029DE08C0F9DD8091610024DEC03108F476
:1004800032CE2FCEF1DD809161001CDE2ACEECDD74
:0C0490008091610017DE27CEF894FFCFAA
:00000001FF
